:020000040800F2
:10000000100700206102000851180008F9170008C5
:100010004D18000859040008451A000800000000A7
:10002000000000000000000000000000851800082B
:10003000F90600080000000055180008891800089B
:100040007B0200087B0200087B0200087B0200089C
:100050007B0200087B0200087B0200087B0200088C
:100060007B0200087B0200087B0200087B0200087C
:100070007B0200087B0200087B0200087B0200086C
:100080007B0200087B0200087B02000800000000E1
:100090000000000000000000000000007B020008DB
:1000A0007B0200087B0200087B0200087B0200083C
:1000B0007B0200087B0200087B0200087B0200082C
:1000C0007B0200087B0200087B0200087B0200081C
:1000D0007B0200087B0200087B0200080000000091
:1000E0007B0200087B0200087B0200080000000081
:1000F0000000000000000000000000007B0200087B
:10010000000000007B0200087B0200087B02000860
:1001100000000000000000000000000000000000DF
:100120007B0200087B0200087B0200087B020008BB
:100130007B0200080000000000000000000000003A
:100140000000000000000000000000007B0200082A
:100150007B0200087B0200087B0200087B0200088B
:100160007B0200087B020008000000000000000085
:10017000000000000000000000000000000000007F
:10018000000000007B0200080000000000000000EA
:100190007B02000800F002F800F052F814A696E87E
:1001A000000CB244B344DA4501D100F049F8BAE892
:1001B0000F000FA696E83000A5EB040504EB060738
:1001C000AAEB0704A7F101074FEA15154FEA34140B
:1001D000A4F10104AC4201D300F032F813F0010F96
:1001E00018BFFB1A43F0010300F001F8DBE71847E2
:1001F000941A0000B41A0000103A24BF78C878C1DD
:10020000FAD8520724BF30C830C144BF04680C601C
:1002100070470000704700000023002400250026DE
:10022000103A28BF78C1FBD8520728BF30C148BF59
:100230000B6070471FB501F00FFD1FBD10B510BD5D
:1002400000F0D0F81146FFF7F5FF01F0FDFB00F0DC
:10025000EEF803B4FFF7F2FF03BC00F0F5F800007E
:100260000948804709480047FEE7FEE7FEE7FEE74A
:10027000FEE7FEE7FEE7FEE7FEE7FEE70448054986
:10028000054A064B70470000311900089501000827
:100290001001002010070020100300201003002090
:1002A00053EA020C00F069802DE9F04B4FF0000694
:1002B000002B1FBFB3FA83F503FA05F424FA05F601
:1002C0005E4012BF1643B2FA82F502FA05F4C5F198
:1002D00020051EBF22FA05FC44EA0C04203556EA2C
:1002E000044C4FEA144418BF641C4FF000084FF050
:1002F0000009904271EB030C39D3002919BFB1FA00
:1003000081F701FA07F6B0FA80F700FA07F6C7F1AD
:1003100020071EBF20FA07FC46EA0C062037B6FB72
:10032000F4FCA7EB0507103F07F01F0BCBF12006ED
:100330002CFA06F60CFA0BFB44BFB3460026202F1E
:10034000A4BF5E464FF0000B5BEA060C08BF4FF0FF
:10035000010B19EB0B0948EB0608ABFB027C06FB13
:1003600002CC0BFB03CCC01B71EB0C01C1E70B46AD
:10037000024641464846BDE8F08B13B5084318BF16
:100380004FF0FF300146AFF30080BDE81C407047DE
:100390004FF0000200B5134694469646203922BF1E
:1003A000A0E80C50A0E80C50B1F12001BFF4F7AF69
:1003B000090728BFA0E80C5048BF0CC05DF804EB4B
:1003C000890028BF40F8042B08BF704748BF20F8B9
:1003D000022B11F0804F18BF00F8012B70477047B7
:1003E00070477047754600F02BF8AE460500694629
:1003F000534620F00700854618B020B5FFF73EFFB2
:10040000BDE820404FF000064FF000074FF0000815
:100410004FF0000BAC46ACE8C009ACE8C009ACE852
:10042000C009ACE8C00921F007018D46704710B53E
:100430000446AFF300802046BDE81040FFF709BF37
:10044000004870471000002001491820ABBEFEE7AD
:100450002600020070470000FEE7000080B586B06D
:10046000002201910121CDE9021201A90592049215
:1004700000F004FC06B080BD2DE9F04387B0904643
:100480000024002299460E4607468DF80440009449
:1004900000F0CAFC012000F0DDFB384631460122A5
:1004A00000F0C2FC00F0C6FC00F0C4FC02A9384613
:1004B0000694CDE90264CDE9044400F0DFFB00BFFF
:1004C0003846314600F0AAFC0128F9D038463146BA
:1004D00000F0A4FC0028F9D03846314600F09EFC1C
:1004E0000128F9D000246D463846314600F096FCCC
:1004F0000028F9D000F09EFC00F09CFC3846314604
:1005000000F08CFC012803D1285D40F080002855C4
:100510003846314600F082FC0128F9D03846314691
:1005200000F07CFC0028F9D000F084FC00F082FC94
:100530003846314600F072FC012803D1285D40F0B6
:10054000400028553846314600F068FC0128F9D0B3
:100550003846314600F062FC0028F9D000F06AFC11
:1005600000F068FC3846314600F058FC012803D101
:10057000285D40F0200028553846314600F04EFCFA
:100580000128F9D03846314600F048FC0028F9D05F
:1005900000F050FC00F04EFC3846314600F03EFCC6
:1005A000012803D1285D40F0100028553846314617
:1005B00000F034FC0128F9D03846314600F02EFC1A
:1005C0000028F9D000F036FC00F034FC3846314603
:1005D00000F024FC012803D1285D40F008002855D4
:1005E0003846314600F01AFC0128F9D03846314629
:1005F00000F014FC0028F9D000F01CFC00F01AFCFC
:100600003846314600F00AFC012803D1285D40F04D
:10061000040028553846314600F000FC0128F9D086
:100620003846314600F0FAFB0028F9D000F002FC11
:1006300000F000FC3846314600F0F0FB012803D101
:10064000285D40F0020028553846314600F0E6FBB0
:100650000128F9D03846314600F0E0FB0028F9D0F7
:1006600000F0E8FB00F0E6FB3846314600F0D6FB30
:10067000012803D1285D40F0010028553846314655
:1006800000F0CCFB0128F9D00134052C7FF42CAF0D
:100690009DF801209DF8001001EE102A9FED152A0B
:1006A0009DF8020000EE101AB8EE411A53189DF89A
:1006B0000310B8EE400A21EE021A31EE000A1A18B1
:1006C00089ED000A00EE100A501801EE101A9DF88C
:1006D0000410B8EE411AB8EE400A21EE021A401A90
:1006E00031EE000AB0FA80F0400988ED000A07B048
:1006F000BDE8F0830000803B7047000070B581B01A
:100700000022009290F83C20012A03D1022001B07F
:1007100070BD00BFD1F800E00122BEF10A0F1FFA40
:100720008EFC80F83C2009D34FEA4C02036812FA91
:100730008EF2A2F11E0403F10C0204E003680EEB3A
:100740004E0403F1100207251668A54026EA0505A8
:1007500015608D68166805FA04F43443146049681E
:10076000062907D801EB81014A1F194651F8345F69
:100770000FE000BF0C2901EB810105D8A1F1230294
:10078000194651F8305F04E0A1F14102194651F8D1
:100790002C5F1F24944025EA04040C600CFA02F23A
:1007A0000C6842F2043CC4F2010C2243ACF54174E3
:1007B000A3420A603ED1BEF1120F07D1DCF800104F
:1007C00041F48001CCF8001034E000BF2EF00101AC
:1007D00010292FD1DCF80010BEF1100F41F40001F8
:1007E000CCF8001026D140F20801C2F200010968DD
:1007F0004DF68362C4F21B32A1FB0212910C01EB95
:100800008101490000910099A1B10099013900913D
:10081000009979B1009901390091009951B100997D
:1008200001390091009929B100990139009100998D
:100830000029EAD1002180F83C10002001B070BDF1
:100840000068C06C70470000002804BF012070479A
:1008500010B5016C00293DD0016CC90645D4016C6E
:1008600041F202129143023142F204320164C4F2B5
:100870000102116821F440311160136890E81210F0
:100880002343D0F810E013604A68012422F48072F8
:100890004A604A68C0F6007442EA0E224A604A681A
:1008A00022F040724A604A6842EA0C024A608A6852
:1008B00022F400628A60C2688B681A438A60826A86
:1008C0008B68A24223F070638B608B6810D123F099
:1008D000405216E0044600F065F8204600216164AD
:1008E00084F83C10016CC906B9D5012153E000BF62
:1008F0001A438A608A6822F040528A60C26A8B6812
:100900001A438A608A6822F002028A608A68037E3B
:1009100090F8204042EA43028A604A6884B142F477
:1009200000624A604A684EF2000322F460424A6064
:10093000426ACFF6FF734C6803EB4232224301E078
:1009400022F400624A60CA6A40F2000C22F470028B
:10095000CA62C3694269CFF6F07CCC6A0CEB0353E0
:100960002343CB628B6823F400738B6090F83030A4
:100970008C6844EA43238B608B6823F480638B602C
:100980008B6843EA82228A6000214164026C012361
:1009900063F301020264002280F83C20BDE81040AD
:1009A0000846704780B586B042F200010068C4F284
:1009B0000101002288420592CDE9032202920192B0
:1009C00002D006B080BD00BF43F630000092C4F2F2
:1009D0000200436943F480734361436903F4807305
:1009E0000093009B0092036843F0010303600068DA
:1009F00000F0010000900098102001900320CDE944
:100A0000020201F5604001A900F038F906B080BD8E
:100A100070B5044600680D468268520544BF806880
:100A20005FEAC05038D400F005FA21680A689207DE
:100A300049D40646681C3CD0DDB90868800721D53A
:100A4000086880073FD4086880071BD508688007BE
:100A500039D40868800715D50868800733D408683A
:100A600080070FD508688007E7D52CE00868800765
:100A700029D400F0DFF9801B2168A842F6D9086864
:100A80008007F3D4206C40F004002064002084F838
:100A90003C00032070BD00BF206C40F020002064AB
:100AA000002084F83C00012070BD00BF086880076A
:100AB00009D40868800706D4086880075CBF086806
:100AC0005FEA8070F2D56FF012000860206C40F48D
:100AD00000702064886810F0405F01D0002070BD75
:100AE000207E0028FAD1C86A10F4700F02D08868FE
:100AF0004005F3D4206C20F480702064206CC00486
:100B0000ECD4206C40F001002064002070BD000097
:100B100010B581B00021009190F83C10012903D15B
:100B2000022001B010BD00BF0468012180F83C1014
:100B3000214651F8083FDB0729D10B684DF6836247
:100B400043F001030B6040F20803C2F200031B688C
:100B5000C4F21B32A3FB02239A0C02EB4202009266
:100B6000009AA2B1009A013A0092009A7AB1009AD2
:100B7000013A0092009A52B1009A013A0092009A0A
:100B80002AB1009A013A0092009A002AEAD10A6832
:100B9000036CD2070CD143F01001016400F1440151
:100BA00001200A6810430860002001B010BD00BF9A
:100BB00040F2017223EA020202F580720264626866
:100BC000520504D5026C012363F30D320264026CFA
:100BD0004FF0000C0023D20444BF426C22F0060305
:100BE00042F2000E436480F83CC06FF02200C4F271
:100BF000010E2060DEF80403C00609D074450BD155
:100C0000DEF8080010F0405F06D14FF08040C8E7E2
:100C1000086810F0405FF8D0002001B010BD00005F
:100C200090F83C10012904BF0220704701688A68CF
:100C300022F001028A608968C90705D1016C41F27E
:100C40000112914301310164002180F83C10002021
:100C500070470000B0B5044600F0ECF8054640F2DD
:100C60000000C2F200000078611C18BF044400BFFD
:100C700000F0E0F8401BA042FAD3B0BD2DE9F04FE0
:100C800083B000F1200200F13E4741F200050092DE
:100C900007F1FF77C4F2020507224FEAB726A84200
:100CA00008BF042200254FF000084FF00009042E71
:100CB00038BF4FEAB72201920AE000BF09F10109EB
:100CC00008F10208B9F1100F05F1040500F0A28047
:100CD0000F68012202FA09FE17EA0E0AEED0D1F8D7
:100CE00004C003220CF003077E1E02FA08F4012E52
:100CF0006FEA040B12D88468CE6804EA0B0406FA83
:100D000008F634438460446824EA0E06CCF30014E9
:100D100004FA09F42643466004E000BF032F01D122
:100D200003271EE0C6688C6806EA0B0604FA08F47E
:100D30002643022FC66014D16FF00302009E02EA20
:100D4000590756F807C005F01C040F220B69A24092
:100D50002CEA0202A3401A43F251D1F804C00CF06D
:100D60000307026807FA08F302EA0B021A431CF4AD
:100D7000403F0260A2D0002243F644030292C4F234
:100D800002031A6843F6004442F480421A601A686B
:100D9000C4F2010402F480420292029A29F0030292
:100DA0004FF6084C2244CFF6FF7C52F80C3005F089
:100DB0000C070F26BE40B343019E06FA07F73B43DC
:100DC00042F80C30A2684B6842EA0A0743F60C4C22
:100DD000DE0258BF22EA0A07A760C4F2010CDCF861
:100DE00000209E0242EA0A0758BF22EA0A07CCF80E
:100DF000007062689E0342EA0A0758BF22EA0A07A7
:100E000067602268DB0342EA0A0758BF22EA0A0742
:100E1000276053E703B0BDE8F08F00000069084089
:100E200018BF012070470000002A08BF0904816133
:100E30007047000040F20810C2F2000000687047DE
:100E400040F2000040F20811C2F20000C2F20001BC
:100E500000780A68104408607047000080B543F6C7
:100E60000040C4F20200016841F4007101600168B1
:100E700041F480610160016841F4807101600320E8
:100E800000F074F80F2000F005F800F027F80020BB
:100E900080BD000070B540F20006C2F2000640F2CC
:100EA00008013278C2F200014FF47A730968B3FB8B
:100EB000F2F20446B1FBF2F1084600F025FB0F2CDC
:100EC0004FF0010508D838B94FF0FF302146002215
:100ED000002500F01FF87460284670BD82B0002025
:100EE00043F640010190C4F202014A6842F4804294
:100EF0004A604A6802F480420192019A00900868B0
:100F000040F080500860086800F080500090009821
:100F100002B0704710B54EF60C5CCEF2000CDCF857
:100F20000030C3F3022E8EF00704042C28BF0424E3
:100F3000BEF103034FF0FF3E0EFA04F438BF002366
:100F4000A14399400EFA03F39A43114300F00F02B4
:100F500000F160430901043A03F564436244002848
:100F600048BF02F10C03197010BD00004EF60C5181
:100F7000CEF200010A684FF6FF031A4060F30A221E
:100F800042F0806040F0FD7008607047002804BFA8
:100F9000012070472DE9F04143F60808C4F2020829
:100FA0000446D8F8F8030D4600F00700884207D23F
:100FB00088F8F853D8F8F80300F00700A84277D172
:100FC0002068810717D5410705D5D8F8001041F4EE
:100FD000E051C8F80010010705D5D8F8001041F419
:100FE0006041C8F80010D8F80010A26821F0F001A4
:100FF0001143C8F80010C00740D1D8F8F80300F03A
:101000000700A84207D988F8F853D8F8F80300F089
:101010000700A8424CD12068410707D5D8F8001036
:10102000E26821F4E0511143C8F80010000708D528
:10103000D8F80000216920F4604040EAC100C8F8F7
:10104000000000F055F8D8F8001041F67242C1F3E4
:101050000311C0F60002515C40F2080220FA01F1CF
:1010600040F20400C2F200000068C2F20002116007
:10107000FFF710FF0020BDE8F08100BF6068811E0F
:10108000022907D258F8081C89015CBF0120BDE87D
:10109000F08111E0012807D158F8081C89035CBFD2
:1010A0000120BDE8F08107E058F8081C890703D447
:1010B0000120BDE8F08100BFD8F8001021F0030145
:1010C0000843C8F80000FFF7B5FE064641F288372E
:1010D000D8F80000616800F00C00B0EB810F8CD0F4
:1010E000FFF7A8FE801BB842F2D90320BDE8F081CB
:1010F00010B543F60404C4F20204606800F00C006A
:1011000008280BD0042819BF42F20040C0F2F400B6
:1011100047F64000C0F27D1010BD00BF2068216876
:101120002368490247F64001C0F27D1100F03F02FA
:10113000C3F388105CBF42F20041C0F2F401A1FB8E
:1011400000010023FFF7ACF821680222C1F301413E
:1011500002EB4101B0FBF1F010BD0000002804BF1C
:10116000012070472DE9F04182B00446007843F633
:101170000006C007C4F202060CD0B06800F00C00F4
:10118000042840F081803068800303D5606800281F
:1011900000F06881207880071BD5B06810F00C0F34
:1011A00009D0B06800F00C00082840F08780706813
:1011B000400200F183803068800703D5E068012891
:1011C00040F050813068216920F0F80040EAC10009
:1011D00030602078000713D4207840072AD4A5690E
:1011E000002D00F03A81B06800F00C00082840F0B3
:1011F000A580012D40F00E81012002B0BDE8F081F4
:101200006069002800F082800020C4F2472001219C
:10121000C0F8801EFFF70EFE054600BF706F800706
:10122000DAD4FFF707FE401B0228F7D9032002B0EB
:10123000BDE8F081306C5FEAC0080AD4002001905C
:10124000306C40F080503064306C00F08050019081
:10125000019847F20007C4F200073868C00547D478
:10126000386840F480703860FFF7E4FD054600BF41
:101270003868C0053CD4FFF7DDFD401B0228F7D9D4
:10128000032002B0BDE8F081B06800F00C0008282F
:1012900003D1706840023FF576AF61683068B1F500
:1012A000803F07D0B1F5A02F40F09A8040F4802015
:1012B0003060306840F4803030609AE0E0680028A8
:1012C00040F20000C4F247205CD001210160FFF72A
:1012D000B1FD0546306880073FF574AFFFF7AAFD02
:1012E000401B0228F6D9032002B0BDE8F08100BF00
:1012F000A168306F012905D0052955D140F00400BF
:101300003067306F40F00100306756E00020C4F2D3
:1013100047200021C0F8801EFFF78CFD054600BF66
:10132000706F80077FF558AFFFF784FD401B0228E0
:10133000F6D9032002B0BDE8F08100BF0027C4F257
:10134000472700203866FFF775FD022D05460DD1B1
:101350003068800140F18A80FFF76CFD401B022855
:101360004FF00300F4D902B0BDE8F081306880018D
:1013700073D5FFF75FFD401B02284FF00300F5D93E
:10138000F1E700BF00210160FFF754FD054600BFF3
:10139000306880077FF51DAFFFF74CFD401B02282A
:1013A0004FF00300F4D9DEE720F001003067306F22
:1013B000002920F0040030677AD0FFF73BFD054696
:1013C00041F28837306F800700F18480FFF732FDEB
:1013D000401BB842F6D9032002B0BDE8F08100BF3F
:1013E00020F4803030603068002920F480203060A4
:1013F0007AD0FFF71FFD0546306880033FF5CAAE7F
:10140000FFF718FD401B6428F6D9032002B0BDE8A1
:10141000F08100BF7068E16900F480028A4221D146
:10142000216A00F03F028A421CD147F6C071626A0D
:101430000140B1EB821F15D1A16A4FF6FF73C903BA
:10144000994300F44032A1F580318A420AD1E16A21
:1014500000F07060B0EB016F04D1002002B0BDE875
:10146000F08100BF012002B0BDE8F08104F11C054D
:101470002FCD084340EA8210D9034FF6FF72914303
:10148000A1F5803140EA05600843706001203866AC
:10149000FFF7D0FC044600BF30688001DDD4FFF7C1
:1014A000C9FC001B02284FF00300F5D95BE700BF21
:1014B000FFF7C0FC054641F2883700BF306F800758
:1014C00008D5FFF7B7FC401BB8424FF00300F5D931
:1014D00049E700BFB8F1000F3FF581AE306C20F056
:1014E000805030647BE600BFFFF7A4FC054600BFD8
:1014F000306880037FF54EAEFFF79CFC401B6428EC
:101500004FF00300F4D92EE7411E0020B0EB116F1D
:101510001CBF012070474EF21002CEF20002516053
:101520004EF62351CEF20001F0230B70072190609C
:101530001160704790F83C20012A4FF0020241D020
:1015400010B580F83D200268D2F804E0D2F808C057
:101550000C682EF07003234340F6FF34C4F20004FD
:10156000A242536010DCB2F1804F1ED040F2004323
:10157000C4F200039A4218D040F60003C4F20003FC
:101580009A4212D016E000BF40F60043C4F20003B6
:101590009A420AD044F20003C4F201039A4204D0F2
:1015A0000023C4F201039A4204D149682CF080035D
:1015B000194391600121002280F83D1080F83C2001
:1015C000BDE8104010467047002804BF0120704756
:1015D00010B5044690F83D0028B9002084F83C007E
:1015E000204600F01FF8022084F83D002068211DED
:1015F00000F0A8F9012084F8460084F83E0084F841
:101600003F0084F8400084F8410084F8420084F8E8
:10161000430084F8440084F8450084F83D0000202D
:1016200010BD000000680021C4F20101884218BF0B
:10163000704781B00020009043F64400C4F20200DD
:10164000016841F001010160006800F001000090B4
:10165000009801B07047000090F83C20012A4FF03C
:1016600002026CD080B580F83D20D0F800C04FF663
:101670007772DCF8083023EA0202CCF808200B6805
:101680004F2B29DC1F2B45DD202B46D0302B44D09F
:10169000402B40F0AF80D1F804E0C968DCF820307E
:1016A000DCF8202022F00102CCF82020DCF8182001
:1016B00022F0F00242EA011123F00A0242EA0E028D
:1016C000CCF81810CCF82020DCF8081041F04701C5
:1016D00021F0300128E000BF6F2B33DDB3F5005F50
:1016E00074D0B3F5805F21D0702B40F08380D1E9B6
:1016F00001E3C968DCF8082043EA0E0322F47F42C4
:1017000043EA01211143CCF80810DCF8081041F03D
:10171000770109E00BB1102B6CD1DCF8081021F037
:101720007001194341F00701CCF808100022012193
:1017300080F83D10002180F83C10BDE88040104644
:10174000704700BF502B21D0602B53D1D1F804E05B
:10175000C968DCF82030DCF8202022F01002CCF838
:101760002020DCF8182022F4704242EA013123F0F4
:10177000A00242EA0E12CCF81810CCF82020DCF8B7
:10178000081041F0670121F01001CDE7D1F804E025
:10179000C968DCF82030DCF8202022F00102CCF807
:1017A0002020DCF8182022F0F00242EA011123F098
:1017B0000A0242EA0E02CCF81810CCF82020DCF81D
:1017C000081041F0570121F02001ADE7D1E901E314
:1017D000C968DCF8082043EA0E0322F47F4243EA9A
:1017E00001211143CCF80810DCF8081041F48041C5
:1017F0009AE700BF01229AE7FEE70000B0B5044671
:10180000FFF786F920464FF0FF31FFF701F9204638
:10181000FFF716F805462046FFF702FA00EE105AC9
:101820009FED071AB8EE400A9FED062A20EE010A46
:1018300080EE020A9FED041A20EE010AB0BD00BF3F
:101840003333534000F07F450000C842FEE70000FC
:10185000FEE700007047000080B586B000220191CD
:101860000121CDE9021201A905920492FFF706FABF
:1018700006B080BD0022FFF7D7BA00000122FFF7B3
:10188000D3BA000070470000FFF7DABA70B592B023
:1018900006AC20463021FEF77BFD002543F64000D4
:1018A0000595CDE90355CDE901550095C4F2020037
:1018B0000168022641F080510160006800F080500C
:1018C0000090009847F200000095C4F20000016803
:1018D00066F38F310160006800F44040009000988A
:1018E0000120099010200A9008200E904820CDE990
:1018F0000F060420119020460696CDE90C65FFF7EF
:101900002DFC18B172B600BFFEE700BF0F20CDE975
:1019100001064FF48050CDE9040501A8022103958A
:10192000FFF734FB10B172B6FEE700BF12B070BD16
:101930004EF68850CEF20000016841F4700101605B
:101940007047000010B540F2FF7E0368C4F2000E3D
:1019500040F2000C7045C4F2010C1DDD40F600029F
:10196000C4F20002904220D060451ED040F60042F2
:10197000C4F20002904218D04FF6FF72C4F2000287
:1019800090421CDC704525DCB0F1804F3AD040F22B
:101990000042C4F2000233E0B0F1804F05D040F2C3
:1019A0000042C4F200029042E6D14A6823F070037C
:1019B00013434FF6FF72C4F200029042E2DD44F29C
:1019C000FF32C4F20102904210DC60451AD044F2AA
:1019D000000213E040F60002C4F20002904211D06F
:1019E00040F60042C4F200020AE000BF44F60002E2
:1019F000C4F20102904205D044F20042C4F2010256
:101A0000904203D1CA6823F44073134323F0800249
:101A10004B69D1F800E08C681A4360450260C462EB
:101A2000C0F828E002D10969CCF8301001214161E9
:101A30000169C90708BF10BD016921F001010161F9
:101A400010BD0000FEE7000088B040F20008C4F2BC
:101A50000208FFF703FAFFF719FF002743F63000EB
:101A60000597CDE90377CDE901770697C4F2020027
:101A70000168002241F08001016001684FF0040913
:101A800001F08001069106990697016841F0010175
:101A90000160016801F0010106910699069701684D
:101AA00041F0020101600068042100F0020006908C
:101AB00006984046FFF7B8F908F5806528464FF4C8
:101AC000805100224FF48056FFF7AEF901AC4FF081
:101AD000010A40462146CDF80490CDE902A70497BB
:101AE000FFF7CCF80820CDE90107404621460397CF
:101AF000FFF7C4F828462146CDE9016ACDE903770E
:101B0000FFF7BCF840F27006C2F20006A8F560418B
:101B1000304640F8081F0121C0F60071049707768F
:101B200080F82070C0E90A17C0F81CA080F8307057
:101B3000C0E90177C0E90377C0F814A0FEF784FE7E
:101B400010B172B6FEE700BF039706F1080701A9BE
:101B50003846CDE9019AFEF7D1FD18B172B600BF43
:101B6000FEE700BF40F2C0000021A8F58032C2F2BB
:101B7000000047234FF6FF740491CDE90211CDE92F
:101B80000611C0E90023C0E90214C0E90411816113
:101B9000FFF71AFD10B172B6FEE700BF4FF4805098
:101BA000019040F2C000C2F2000001A9FFF754FD0D
:101BB00010B172B6FEE700BF40F2C000C2F20000F2
:101BC00006A9FFF7B7FC18B172B600BFFEE700BF69
:101BD00040460421FEF742FC28464FF48051FFF7AF
:101BE0003BFE9FED1B9A9FED1BAA4BF62079341DFF
:101BF000C0F2020911E000BF28464FF48051FFF700
:101C00003DFE4846FFF726F828464FF48051FFF77F
:101C100031FE4FF4FA60FFF71DF83846FFF7EEFD8E
:101C20004046042132462346B0EE408AFEF724FCAB
:101C30000028EED096ED000AB4EE490AF1EE10FA53
:101C4000DADCB4EE4A8AF1EE10FAE2DDD4E700BF46
:101C50000000204200803B44F1EE100A4FF6FF7175
:101C6000C0F2C03120EA010040F04070E1EE100AFD
:101C70007047000000000000000001020304060796
:101C800008090000A81C0008000000201000000047
:101C9000F8010008B81C0008100000200007000030
:101CA0001802000800000000010000001000000001
:081CB0000024F4000000000014
:040000050800019559
:00000001FF
